:020000040800F2
:10000000008000203D050008D9040008DF04000836
:10001000E5040008EB040008F104000800000000FB
:10002000000000000000000000000000313A00085D
:10003000F704000800000000113C00080305000858
:100040008D0500088D0500088D0500088D05000848
:100050008D0500088D0500088D0500088D05000838
:100060008D0500088D0500088D0500088D05000828
:100070008D0500088D0500088D0500088D05000818
:100080008D0500088D0500088D0500088D05000808
:10009000000000008D0500088D0500088D05000892
:1000A0008D0500088D0500088D0500088D050008E8
:1000B0008D0500088D0500088D0500088D050008D8
:1000C0008D0500088D0500088D0500088D050008C8
:1000D0008D0500088D0500088D0500081D05000828
:1000E0008D0500088D0500088D0500088D050008A8
:1000F0008D05000800000000000000008D050008CC
:100100008D0500088D0500088D0500088D05000887
:100110008D0500088D0500088D0500088D05000877
:100120008D0500088D0500088D0500088D05000867
:080130008D0500088D05000893
:1001400010B5054C237833B9044B13B10448AFF311
:1001500000800123237010BD10000020000000006B
:10016000B442000808B5034B1BB103490348AFF381
:10017000008008BD0000000014000020B442000808
:1001800080B582B000AF78607B681B684FF4FA429C
:1001900002FB03F3084AA2FB03239B091946074805
:1001A00000F04CFE012001F0EDF97B6800221A609E
:1001B00000BF0837BD4680BDD34D621080020020CD
:1001C00080B582B000AF7860044800F0D9FE00F03E
:1001D0005BF800BF0837BD4680BD00BF800200202D
:1001E00080B485B000AFF860B9607A60FB68064AF9
:1001F0001A60BB68054A1A607B6880221A6000BFDB
:100200001437BD4680BC70472C00002080000020C1
:1002100080B485B000AF78604FF0B043DA6C4FF037
:10022000B0417B681343CB644FF0B043DA6C7B681A
:100230001340FB60FB6800BF1437BD4680BC7047AD
:10024000B0B588B000AF00F0A3F900F01DF800F0E1
:100250009DF800F06FF80A4B3C1D1D460FCD0FC4F2
:1002600095E8070084E807003B1D0021184602F0CE
:1002700085FC0346034A136002F079FCFEE700BFE9
:10028000D8420008BC02002080B59AB000AF07F148
:10029000200348220021184604F004F807F108035F
:1002A00000221A605A609A60DA601A615A61204B23
:1002B0001B6823F4C0631E4A43F4806313601C4B25
:1002C0001B6803F4C0637B607B6828233B620123C7
:1002D0003B6400237B646023BB640023FB63012336
:1002E000BB630023FB6407F12003184601F0EEFB1B
:1002F0000346002B01D000F094F84F23BB6000238D
:10030000FB6000233B6100237B610023BB61002372
:10031000FB6107F108030021184601F073FF034653
:10032000002B01D000F07DF800BF6837BD4680BDCE
:100330000004005880B500AF124B134A1A60114BED
:1003400000225A600F4B00229A600E4B4FF6FF724C
:100350005A610C4B00221A620A4B00225A62094B66
:1003600000229A62074B0022DA62064B00221A63CF
:10037000044800F09BFC0346002B01D000F051F82C
:1003800000BF80BD80020020007C004080B586B0A8
:1003900000AF3B1D00221A605A609A60DA601A6151
:1003A0000220FFF735FF002220210A4800F0F6FB6B
:1003B00020237B600123BB600023FB6000233B61A3
:1003C0003B1D1946034800F089FA00BF1837BD46A7
:1003D00080BD00BF0004004880B582B000AF7860E7
:1003E0007B68DBB21A462021034800F0D7FB0023CC
:1003F00018460837BD4680BD0004004880B582B06D
:1004000000AF78600020FFF7E7FF42F2107000F0C5
:1004100035F90120FFF7E0FF4FF47A7002F0FAFBA4
:10042000F0E780B400AF72B600BFFEE780B485B0DD
:1004300000AF78604FF0B0439A6D4FF0B0417B68E9
:1004400013438B654FF0B0439A6D7B681340FB609C
:10045000FB6800BF1437BD4680BC704780B500AF55
:1004600000220F216FF0010000F001FA00BF80BDF3
:1004700080B590B000AF786007F108033822002102
:10048000184603F00FFF7B681B68114A93421AD18C
:100490004FF40073BB600F4BBB6207F108031846B3
:1004A00002F02EFA0346002B01D0FFF7BAFF4FF0FF
:1004B0000040FFF7BBFF00220521272000F0D7F9FD
:1004C000272000F0F0F900BF4037BD4680BD00BFD7
:1004D000007C004004000C0080B400AFFEE780B454
:1004E00000AFFEE780B400AFFEE780B400AFFEE7E8
:1004F00080B400AFFEE780B400AF00BFBD4680BC53
:10050000704780B500AF00F09DF803F0B5F90346E1
:10051000012B01D003F0A0FB00BF80BD80B500AF70
:10052000024800F093FD00BF80BD00BF80020020A4
:1005300080B400AF00BFBD4680BC70470D48854603
:10054000FFF7F6FF0C480D490D4A002302E0D4588E
:10055000C4500433C4188C42F9D30A4A0A4C00230D
:1005600001E013600432A242FBD303F077FEFFF7F1
:1005700067FEFEE700800020000000201000002041
:10058000A0430008100000201C100020FEE700001F
:1005900080B582B000AF0023FB71032000F05CF94E
:1005A00001F0F4FF0346094A13600F2000F010F831
:1005B0000346002B02D00123FB7101E0FFF74EFF41
:1005C000FB7918460837BD4680BD00BF00000020FB
:1005D00080B584B000AF78600023FB73174B1B78A5
:1005E000002B24D001F0D2FF0246144B1B78194691
:1005F0004FF47A73B3FBF1F3B2FBF3F3184600F058
:1006000060F90346002B0FD17B680F2B09D800221D
:1006100079684FF0FF3000F02AF9094A7B681360CF
:1006200007E00123FB7304E00123FB7301E00123D6
:10063000FB73FB7B18461037BD4680BD08000020C9
:100640000400002080B400AF054B1B781A46054B10
:100650001B681344034A136000BFBD4680BC70474B
:1006600008000020C002002080B400AF024B1B68CD
:100670001846BD4680BC7047C002002080B584B0DB
:1006800000AF7860FFF7F0FFB8607B68FB60FB6845
:10069000B3F1FF3F05D00A4B1B781A46FB681344A1
:1006A000FB6000BFFFF7E0FF0246BB68D31AFA68A1
:1006B0009A42F7D800BF00BF1037BD4680BD00BFCB
:1006C0000800002080B485B000AF78607B6803F03C
:1006D0000703FB600C4BDB68BB60BA684FF6FF0397
:1006E0001340BB60FB681A02BB68134343F0BF634F
:1006F00043F40033BB60044ABB68D36000BF1437C7
:10070000BD4680BC704700BF00ED00E080B400AF84
:10071000044BDB681B0A03F007031846BD4680BC88
:10072000704700BF00ED00E080B483B000AF034627
:10073000FB7197F90730002B0BDBFB7903F01F02ED
:10074000064997F907305B09012000FA02F241F8E7
:10075000232000BF0C37BD4680BC704700E100E09D
:1007600080B483B000AF03463960FB7197F907305E
:10077000002B0ADB3B68DAB20C4997F9073012010B
:10078000D2B20B4483F800230AE03B68DAB208498E
:10079000FB7903F00F03043B1201D2B20B441A762B
:1007A00000BF0C37BD4680BC704700BF00E100E0D1
:1007B00000ED00E080B489B000AFF860B9607A6005
:1007C000FB6803F00703FB61FB69C3F10703042B1C
:1007D00028BF0423BB61FB690433062B02D9FB69E4
:1007E000033B00E000237B61BB69012202FA03F3B3
:1007F0005A1EBB681A407B699A407B69012101FA45
:1008000003F3591E7B680B40134318462437BD463B
:1008100080BC704780B582B000AF78607B68013BD8
:10082000B3F1807F01D301230FE00A4A7B68013BCB
:1008300053600F214FF0FF30FFF792FF054B00226E
:100840009A60044B07221A60002318460837BD46F9
:1008500080BD00BF10E000E080B582B000AF7860DE
:100860007868FFF72FFF00BF0837BD4680BD80B511
:1008700086B000AF0346B9607A60FB73FFF746FFAE
:1008800003467B617B697A68B9681846FFF792FF77
:10089000024697F90F3011461846FFF761FF00BF77
:1008A0001837BD4680BD80B582B000AF0346FB71EE
:1008B00097F907301846FFF737FF00BF0837BD46E6
:1008C00080BD80B582B000AF78607868FFF7A2FF86
:1008D000034618460837BD4680BD000080B487B087
:1008E00000AF7860396000237B6140E13B681A68A3
:1008F00001217B6901FA03F31340FB60FB68002BC5
:1009000000F032813B685B6803F00303012B05D0E4
:100910003B685B6803F00303022B30D17B689B6864
:100920003B617B695B00032202FA03F3DB433A6914
:1009300013403B613B68DA687B695B0002FA03F3B2
:100940003A6913433B617B683A699A607B685B68EC
:100950003B6101227B6902FA03F3DB433A691340EE
:100960003B613B685B681B0903F001027B6902FA8B
:1009700003F33A6913433B617B683A695A603B6809
:100980005B6803F00303032B17D07B68DB683B61D4
:100990007B695B00032202FA03F3DB433A691340ED
:1009A0003B613B689A687B695B0002FA03F33A6932
:1009B00013433B617B683A69DA603B685B6803F02C
:1009C0000303022B23D17B69DA087B68083253F8D2
:1009D00022303B617B6903F007039B000F2202FA80
:1009E00003F3DB433A6913403B613B681A697B6957
:1009F00003F007039B0002FA03F33A6913433B61D8
:100A00007B69DA087B680832396943F822107B6811
:100A10001B683B617B695B00032202FA03F3DB4343
:100A20003A6913403B613B685B6803F003027B69F2
:100A30005B0002FA03F33A6913433B617B683A694E
:100A40001A603B685B6803F44033002B00F08C8035
:100A50004E4A7B699B08023352F823303B617B6925
:100A600003F003039B00072202FA03F3DB433A6916
:100A700013403B617B68B3F1904F0DD07B68444AD3
:100A8000934207D07B68434A934201D1022304E09A
:100A9000072302E0012300E000237A6902F0030249
:100AA000920093403A6913433B6138497B699B0844
:100AB00002333A6941F82320374BD3F880303B6149
:100AC000FB68DB433A6913403B613B685B6803F4B6
:100AD0008033002B03D03A69FB6813433B612E4AF5
:100AE0003B69C2F880302C4BD3F884303B61FB6803
:100AF000DB433A6913403B613B685B6803F40033B6
:100B0000002B03D03A69FB6813433B61224A3B69DF
:100B1000C2F88430204B1B683B61FB68DB433A69B9
:100B200013403B613B685B6803F48013002B03D0E8
:100B30003A69FB6813433B61174A3B691360164BE4
:100B40005B683B61FB68DB433A6913403B613B6890
:100B50005B6803F40013002B03D03A69FB6813436E
:100B60003B610D4A3B6953607B6901337B613B68A4
:100B70001A687B6922FA03F3002B7FF4B7AE00BF3B
:100B800000BF1C37BD4680BC704700BF000001405D
:100B900000040048000800480008005880B483B0F2
:100BA00000AF78600B467B8013467B707B78002B10
:100BB00003D07A887B689A6102E07A887B689A62BF
:100BC00000BF0C37BD4680BC704780B483B000AF17
:100BD00078604FF0B043D3F888207B681B0C1B046F
:100BE000DB431A407B681B044FF0B0411343C1F84C
:100BF000883000BF0C37BD4680BC704780B483B0DE
:100C000000AF78604FF0B043D3F888207B68134082
:100C10001A0C7B68134318460C37BD4680BC7047DE
:100C200080B483B000AF78604FF0B0439A6B4FF060
:100C3000B0417B6813438B6300BF0C37BD4680BC5B
:100C4000704780B483B000AF78604FF0B043DA6B88
:100C50004FF0B0417B681343CB6300BF0C37BD46F8
:100C600080BC704780B483B000AF78604FF0B04371
:100C70009A6B7B68DB434FF0B04113408B6300BF3E
:100C80000C37BD4680BC704780B483B000AF78603D
:100C90004FF0B043DA6B7B68DB434FF0B041134059
:100CA000CB6300BF0C37BD4680BC704780B584B0B5
:100CB00000AF78607B68002B01D10123B6E07B6830
:100CC0005B68012B7B6893F83A30DBB2002B06D1CE
:100CD0007B68002283F839207868FFF7C9FB7B68BE
:100CE000022283F83A207B681B681A697B681B68BC
:100CF00042F001021A617B681B684FF480725A60EF
:100D00007B681B687A68526B9A624FF480717868CE
:100D100000F0C2FA0346032B01D1032386E0786872
:100D200000F0EAFA786800F0AAFA0346032B01D132
:100D300003237BE07B681B68DB68FB607B685B6888
:100D4000012B04D07B689B6AB3F5000F03D1FB68CD
:100D500023F01E03FB607B685B694FF6FF729342D2
:100D600005D0FB6823F4604323F0C003FB60FA68FE
:100D7000304B1340FB607B685A687B689B681A4362
:100D80007B681B6A1A437B685B6A1A437B689B6AB1
:100D90001343FA681343FB607B685B68002B07D141
:100DA0007B68DA697B681B691343FA681343FB604D
:100DB0007B685B68012B04D07B689B6AB3F5000FEE
:100DC00007D17B68DA687B681B691343FA681343B1
:100DD000FB607B685B694FF6FF7293420AD07B68C9
:100DE0005A697B689B691A437B68DB691343FA681D
:100DF0001343FB607B681B68FA68DA607B681B68DA
:100E00000D4A934208D17B68D96A7B681A6B7B686C
:100E10001B680A431A6204E07B681B687A68D26A1E
:100E20001A627B68012283F83A20002318461037A3
:100E3000BD4680BDFEF119FF007C004080B582B048
:100E400000AF786039607B68022283F83A207B68C3
:100E50001B68484A934208D1474BD3F88030464A32
:100E600043F00053C2F8803015E07B681B68434AAA
:100E7000934208D1404BD3F880303F4A43F080433F
:100E8000C2F8803007E03C4BD3F880303A4A43F058
:100E90000043C2F880307B685B68012B0CD07B6814
:100EA0009B6AB3F5000F07D17B681B68DA687B6823
:100EB0001B6822F46062DA607B681B681A697B68D1
:100EC0001B6842F001021A617B681B6810225A609D
:100ED0007B681B683A689A611021786800F0DCF939
:100EE0000346032B01D103233FE0786800F004FAA6
:100EF000786800F0C4F90346032B01D1032334E0E2
:100F00007B681B689A687B681B6842F010029A60D5
:100F10007B681B689A687B681B6842F002029A60D3
:100F20007B681B689A687B681B6842F480729A60D1
:100F30007B681B689A687B681B6842F080029A6035
:100F40007B681B681A697B681B6842F001021A61A2
:100F50007B681B681A697B681B6842F004021A618F
:100F60007B68012283F83A20002318460837BD46E3
:100F700080BD00BF007C0040000800580094004085
:100F800080B582B000AF78607B68022283F83A2097
:100F90007B681B682A4A934208D12A4BD3F88030D9
:100FA000284A23F00053C2F8803015E07B681B68A4
:100FB000254A934208D1234BD3F88030214A23F0AD
:100FC0008043C2F8803007E01E4BD3F880301D4AC2
:100FD00023F00043C2F88030786800F08DF978681B
:100FE00000F04DF90346032B01D1032324E07B6875
:100FF0001B689A687B681B6822F010029A607B6805
:101000001B689A687B681B6822F002029A607B6802
:101010001B689A687B681B6822F480729A607B6800
:101020001B689A687B681B6822F080029A607B6864
:10103000012283F83A20002318460837BD4680BDB8
:10104000007C0040000800580094004080B582B049
:1010500000AF78607B681B681B6803F00103012BFD
:101060000DD17B681B689B6803F00103012B06D13F
:101070007B681B6801225A60786800F0AFF87B68D3
:101080001B681B6803F00203022B0DD17B681B68F1
:101090009B6803F00203022B06D17B681B680222C7
:1010A0005A60786800F0A3F87B681B681B6803F03F
:1010B0000403042B0DD17B681B689B6803F00403B9
:1010C000042B06D17B681B6804225A60786800F004
:1010D00097F87B681B681B6803F00803082B0DD189
:1010E0007B681B689B6803F00803082B06D17B68AC
:1010F0001B6808225A60786800F08BF87B681B68D0
:101100001B6803F01003102B0DD17B681B689B68D4
:1011100003F01003102B06D17B681B6810225A6065
:10112000786800F07FF87B681B681B6803F0200379
:10113000202B0DD17B681B689B6803F02003202BBC
:1011400006D17B681B6820225A60786800F073F82B
:101150007B681B681B6803F04003402B0DD17B6844
:101160001B689B6803F04003402B06D17B681B681B
:1011700040225A60786800F067F87B681B681B683B
:1011800003F08003802B0DD17B681B689B6803F004
:101190008003802B06D17B681B6880225A607868A8
:1011A00000F05BF87B681B681B6803F48073B3F581
:1011B000807F0FD17B681B689B6803F48073B3F555
:1011C000807F07D17B681B684FF480725A60786813
:1011D00000F04CF800BF0837BD4680BD80B483B036
:1011E00000AF786000BF0C37BD4680BC704780B44C
:1011F00083B000AF786000BF0C37BD4680BC70473D
:1012000080B483B000AF786000BF0C37BD4680BCAF
:10121000704780B483B000AF786000BF0C37BD4624
:1012200080BC704780B483B000AF786000BF0C37DB
:10123000BD4680BC704780B483B000AF786000BF0B
:101240000C37BD4680BC704780B483B000AF786077
:1012500000BF0C37BD4680BC704780B483B000AF80
:10126000786000BF0C37BD4680BC704780B483B047
:1012700000AF786000BF0C37BD4680BC704780B4BB
:1012800083B000AF78607B6893F83A30DBB21846E1
:101290000C37BD4680BC704780B485B000AF786025
:1012A00039600023FB73124B1B68124AA2FB032315
:1012B0009B0B4FF47A7202FB03F3BB60BB68013BEC
:1012C000BB60BB68002B01D10323FB737B681B68E9
:1012D0001A683B6813403A689A4202D0BB68002BF8
:1012E000ECD1FB7B18461437BD4680BC704700BF6D
:1012F000000000205917B7D180B58AB000AF7860E0
:1013000000237B6272B600BF7B681B688D4A9342E4
:1013100015D08C4A934218D88B4A934203D08B4AFB
:10132000934206D011E04FF44020FFF767FC78624B
:101330000CE04FF44010FFF761FC786206E04FF4D8
:101340004000FFF75BFC786200E000BF7B681B6831
:101350009B683B627B681B68DB68FB617B681B6882
:101360005B69BB617B681B689B697B617B681B68F1
:101370001B6A3B617B681B689B6AFB607B681B6820
:10138000704A934219D06F4A93421DD86E4A9342D5
:1013900003D06E4A934209D016E04FF00040FFF7A9
:1013A0003FFC4FF00040FFF75DFC0EE02020FFF710
:1013B00048FC2020FFF768FC07E04020FFF741FCD5
:1013C0004020FFF761FC00E000BFBB69002B06D1A5
:1013D0007B69002B03D1FB68002B00F096807B68B3
:1013E0001B68584A934213D0564A934215D8564A1E
:1013F000934203D0554A934205D00EE04FF440206B
:10140000FFF7E3FB0AE04FF44010FFF7DEFB05E0D7
:101410004FF44000FFF7D9FB00E000BFBB69002B91
:101420001AD07B681B681A697B681B6842F001024E
:101430001A617B681B68BA695A6108217868FFF7EE
:101440002BFF0346032B03D17B68032283F83A204A
:101450007B681B6808225A607B69002B1AD07B6866
:101460001B681A697B681B6842F001021A617B687D
:101470001B687A699A6110217868FFF70DFF0346AF
:10148000032B03D17B68032283F83A207B681B6817
:1014900010225A60FB68002B1CD07B681B681A69FD
:1014A0007B681B6842F001021A617B681B68FA685E
:1014B0009A624FF480717868FFF7EEFE0346032BC3
:1014C00003D17B68032283F83A207B681B684FF4C2
:1014D00080725A607B681B681A4A934211D0194A7D
:1014E000934214D8184A934203D0184A934204D026
:1014F0000DE0786AFFF769FB0AE0786AFFF765FBA1
:1015000006E0786AFFF761FB02E000BF00E000BF81
:101510007B681B681A697B681B6822F001021A61EC
:101520007B681B683A6A9A607B681B68FA69DA60B4
:101530007B681B683A691A6262B600BF00BF283731
:10154000BD4680BD00980040007C004000940040F3
:1015500080B400AF044B1B68034A43F480731360EC
:1015600000BFBD4680BC70470004005880B400AF87
:10157000034B1B6803F4C0631846BD4680BC70472C
:101580000004005880B483B000AF0346FB71104BD9
:101590001B6823F007030E4A43F0020313600D4B50
:1015A0001B690C4A43F004031361FB79012B01D141
:1015B00030BF02E040BF20BF20BF064B1B69054A79
:1015C00023F00403136100BF0C37BD4680BC704795
:1015D0000004005800ED00E080B400AF064B1B682B
:1015E00003F48073B3F5807F01D1012300E0002371
:1015F0001846BD4680BC70470004005880B400AF58
:101600004FF0B0431B684FF0B04243F40013136037
:1016100000BFBD4680BC704780B400AF4FF0B04300
:101620001B684FF0B04223F40013136000BFBD46A7
:1016300080BC704780B400AF4FF0B0431B6803F428
:101640008013B3F5801F01D1012300E00023184669
:10165000BD4680BC704780B400AF4FF0B0431B68FC
:101660004FF0B04243F48033136000BFBD4680BCEE
:10167000704780B400AF4FF0B0431B684FF0B042EA
:1016800023F48033136000BFBD4680BC704780B434
:1016900000AF4FF0B0431B6803F40033B3F5003FD5
:1016A00001D1012300E000231846BD4680BC7047ED
:1016B00080B400AF4FF0B0431B684FF0B04243F42A
:1016C0008073136000BFBD4680BC704780B400AF1C
:1016D0004FF0B0431B684FF0B04223F480731360A7
:1016E00000BFBD4680BC704780B400AF4FF0B04330
:1016F0001B6803F48063B3F5806F01D1012300E020
:1017000000231846BD4680BC704780B483B000AF4C
:1017100078604FF0B0435B6823F0FE427B681B06A5
:101720004FF0B04113434B6000BF0C37BD4680BC47
:10173000704780B400AF4FF0B043D3F8903003F05F
:101740000203022B01D1012300E000231846BD460D
:1017500080BC704780B400AF4FF0B043D3F89430F2
:101760004FF0B04243F00103C2F8943000BFBD46D1
:1017700080BC704780B400AF4FF0B043D3F89430D2
:101780004FF0B04223F00103C2F8943000BFBD46D1
:1017900080BC704780B400AF4FF0B043D3F89430B2
:1017A00003F00203022B01D1012300E000231846BD
:1017B000BD4680BC704780B400AF4FF0B0431B689B
:1017C0004FF0B04243F00103136000BFBD4680BC40
:1017D000704780B400AF4FF0B0431B684FF0B04289
:1017E00023F00103136000BFBD4680BC704780B486
:1017F00000AF4FF0B0431B6803F00203022B01D18E
:10180000012300E000231846BD4680BC704780B429
:1018100000AF4FF0B0431B6803F00803082B01D161
:10182000012300E000231846BD4680BC704780B409
:1018300000AF4FF0B0431B6803F0F0031846BD46FD
:1018400080BC704780B400AF4FF0B043D3F8943001
:1018500003F470631846BD4680BC704780B483B003
:1018600000AF78604FF0B0435B6823F47F427B6841
:101870001B024FF0B04113434B6000BF0C37BD4615
:1018800080BC704780B483B000AF78604FF0B04345
:101890009B6823F003024FF0B0417B6813438B60D9
:1018A00000BF0C37BD4680BC704780B400AF4FF01E
:1018B000B0439B6803F00C031846BD4680BC7047DC
:1018C00080B483B000AF78604FF0B0439B6823F0E2
:1018D000F0024FF0B0417B6813438B6000BF0C37C0
:1018E000BD4680BC704780B483B000AF78604FF0D5
:1018F000B043D3F8083123F00F027B681B094FF087
:10190000B0411343C1F8083100BF0C37BD4680BC5D
:10191000704780B483B000AF78604FF0B0439B68ED
:1019200023F4E0624FF0B0417B6813438B6000BF4B
:101930000C37BD4680BC704780B483B000AF786080
:101940004FF0B0439B6823F460524FF0B0417B6886
:1019500013438B6000BF0C37BD4680BC704780B41A
:1019600000AF4FF0B0439B6803F0F0031846BD464C
:1019700080BC704780B400AF4FF0B043D3F808315B
:101980001B0103F0F0031846BD4680BC704780B4CD
:1019900000AF4FF0B0431B684FF0B04243F080738C
:1019A000136000BFBD4680BC704780B400AF4FF0ED
:1019B000B0431B684FF0B04223F08073136000BF48
:1019C000BD4680BC704780B400AF4FF0B0431B6889
:1019D00003F00073B3F1007F01D1012300E0002385
:1019E0001846BD4680BC704780B400AF4FF0B0438E
:1019F000DB681B0A03F07F031846BD4680BC7047B6
:101A000080B400AF4FF0B043DB6803F0604318468A
:101A1000BD4680BC704780B400AF4FF0B043DB6878
:101A200003F070031846BD4680BC704780B400AF19
:101A30004FF0B043DB6803F003031846BD4680BC9B
:101A4000704780B400AF4FF0B0439B6803F480331D
:101A5000B3F5803F01D1012300E000231846BD46C5
:101A600080BC704780B400AF4FF0B043D3F808316A
:101A700003F48033B3F5803F01D1012300E000235C
:101A80001846BD4680BC704780B400AF4FF0B043ED
:101A90009B6803F40033B3F5003F01D1012300E05C
:101AA00000231846BD4680BC704780B400AF4FF09D
:101AB000B0439B6803F48023B3F5802F01D1012349
:101AC00000E000231846BD4680BC704780B588B052
:101AD00000AF78607B68002B01D101238BE3FFF717
:101AE000E4FEF861FFF7A2FFB8617B681B6803F0B2
:101AF0002003002B00F0C980FB69002B05D0FB6997
:101B00000C2B7BD1BB69012B78D1FFF770FE03460C
:101B1000002B05D07B681B6A002B01D101236AE3EF
:101B20007B689A6A4FF0B0431B6803F00803002BF0
:101B300005D04FF0B0431B6803F0F00306E04FF010
:101B4000B043D3F894301B0903F0F003934222D240
:101B50007B689B6A184600F02DFD0346002B01D0E0
:101B6000012348E34FF0B0431B684FF0B04243F00D
:101B7000080313604FF0B0431B6823F0F0027B684A
:101B80009B6A4FF0B04113430B607B685B6A184659
:101B9000FFF764FE21E04FF0B0431B684FF0B04206
:101BA00043F0080313604FF0B0431B6823F0F002CA
:101BB0007B689B6A4FF0B04113430B607B685B6AA4
:101BC0001846FFF74BFE7B689B6A184600F0F2FC54
:101BD0000346002B01D001230DE300F0D7FC0346A0
:101BE000A14A1360A14B1B681846FEF7F1FC03469F
:101BF000FB74FB7C002B47D0FB7CFCE27B681B6A00
:101C0000002B2CD0FFF7D7FDFEF72EFD786108E002
:101C1000FEF72AFD02467B69D31A022B01D9032362
:101C2000E9E2FFF7E4FD0346002BF1D04FF0B043AB
:101C30001B684FF0B04243F0080313604FF0B0430D
:101C40001B6823F0F0027B689B6A4FF0B04113439E
:101C50000B607B685B6A1846FFF700FE15E0FFF734
:101C6000B8FDFEF701FD786108E0FEF7FDFC0246D5
:101C70007B69D31A022B01D90323BCE2FFF7B7FD1E
:101C80000346002BF1D100E000BF7B681B6803F026
:101C90000103002B5FD0FB69082B05D0FB690C2BDF
:101CA0000DD1BB69032B0AD1FFF7F1FC0346002BD2
:101CB00050D07B685B68002B4CD101239BE24FF036
:101CC000B0431B6823F480127B689B684FF0B041DF
:101CD00013430B607B685B68B3F5803F02D1FFF76D
:101CE000BAFC0DE07B685B68B3F5041F04D1FFF715
:101CF00085FCFFF7B0FC03E0FFF7BBFCFFF78CFCB3
:101D00007B685B68002B12D0FEF7AEFC786108E0C0
:101D1000FEF7AAFC02467B69D31A642B01D9032380
:101D200069E2FFF7B4FC0346002BF1D013E0FEF7A5
:101D30009BFC786108E0FEF797FC02467B69D31AAA
:101D4000642B01D9032356E2FFF7A1FC0346002BC5
:101D5000F1D100E000BF7B681B6803F00203002B99
:101D60004BD0FB69042B05D0FB690C2B13D1BB694D
:101D7000022B10D1FFF7B8FC0346002B05D07B687F
:101D80001B69002B01D1012335E27B685B69184692
:101D9000FFF7BBFC31E07B681B69002B19D0FFF714
:101DA00087FCFEF761FC786108E0FEF75DFC024607
:101DB0007B69D31A022B01D903231CE2FFF794FCA1
:101DC0000346002BF1D07B685B691846FFF79DFC4A
:101DD00013E0FFF77BFCFEF747FC786108E0FEF7B5
:101DE00043FC02467B69D31A022B01D9032302E28A
:101DF000FFF77AFC0346002BF1D17B681B6803F0E8
:101E00000803002B6FD07B689B69002B57D04FF0E5
:101E1000B043D3F89430FB607B68DA69FB6803F069
:101E200010039A4236D0FB6803F00203002B06D061
:101E3000FB6803F00103002B01D10123DBE1FB6808
:101E400003F00103002B18D0FFF794FCFEF70CFC05
:101E500078610DE0FEF708FC02467B69D31A112B6E
:101E600006D90323C7E100BF0000002004000020C2
:101E7000FFF790FC0346002BECD14FF0B043D3F8B2
:101E8000943023F010027B68DB694FF0B0411343BC
:101E9000C1F89430FFF75EFCFEF7E6FB786108E0DE
:101EA000FEF7E2FB02467B69D31A112B01D903230B
:101EB000A1E1FFF76FFC0346002BF1D013E0FFF721
:101EC00059FCFEF7D1FB786108E0FEF7CDFB024636
:101ED0007B69D31A112B01D903238CE1FFF75AFC3C
:101EE0000346002BF1D17B681B6803F00403002B31
:101EF00000F0D880FFF770FB0346002B13D1FFF7EB
:101F000027FBFEF7B1FB786108E0FEF7ADFB024668
:101F10007B69D31A022B01D903236CE1FFF75CFB29
:101F20000346002BF1D07B68DB68002B7BD07B68FD
:101F3000DB68852B03D07B68DB68052B09D14FF06C
:101F4000B043D3F890304FF0B04243F00403C2F8EE
:101F50009030FEF789FB78614FF0B043D3F89030B2
:101F60004FF0B04243F00103C2F890300AE0FEF7B0
:101F70007BFB02467B69D31A41F28832934201D936
:101F8000032338E1FFF7D5FB0346002BEFD07B6836
:101F9000DB68812B03D07B68DB68852B21D1FEF7C2
:101FA00063FB78614FF0B043D3F890304FF0B0420C
:101FB00043F08003C2F890300AE0FEF755FB02467A
:101FC0007B69D31A41F28832934201D9032312E18B
:101FD0004FF0B043D3F8903003F40063002BECD003
:101FE00060E0FEF741FB78614FF0B043D3F89030EA
:101FF0004FF0B04223F08003C2F890300AE0FEF7C1
:1020000033FB02467B69D31A41F28832934201D9ED
:102010000323F0E04FF0B043D3F8903003F40063B3
:10202000002BECD13EE0FEF71FFB78614FF0B04390
:10203000D3F890304FF0B04223F08003C2F89030D4
:102040000AE0FEF711FB02467B69D31A41F288329F
:10205000934201D90323CEE04FF0B043D3F8903040
:1020600003F40063002BECD1FEF7FEFA78614FF029
:10207000B043D3F890304FF0B04223F00103C2F8E0
:1020800090300AE0FEF7F0FA02467B69D31A41F27B
:102090008832934201D90323ADE0FFF74AFB0346A0
:1020A000002BEFD17B68DB6A002B00F0A380FB697B
:1020B0000C2B76D07B68DB6A022B4BD1FFF775FCCB
:1020C000FEF7D2FA786108E0FEF7CEFA02467B69A5
:1020D000D31A0A2B01D903238DE0FFF774FC0346C2
:1020E000002BF1D14FF0B043DA68454B13407A68CA
:1020F000116B7A68526B11437A68926B120211432A
:102100007A68D26B11437A68126C11437A68526C08
:102110000A434FF0B0411343CB60FFF738FC4FF058
:10212000B043DB684FF0B04243F08053D360FEF71A
:102130009BFA786108E0FEF797FA02467B69D31AAA
:102140000A2B01D9032356E0FFF73DFC0346002B81
:10215000F1D04FE0FFF729FC4FF0B043DB684FF0C0
:10216000B04223F00303D3604FF0B043DB684FF07D
:10217000B04223F0885323F48033D360FEF774FA1F
:10218000786108E0FEF770FA02467B69D31A0A2BE1
:1021900001D903232FE0FFF716FC0346002BF1D1F2
:1021A00028E07B68DB6A012B01D1012323E04FF09B
:1021B000B043DB68BB61BB6903F003027B681B6B48
:1021C0009A4215D1BB6903F070027B685B6B9A423F
:1021D0000ED1BB6903F4FE427B689B6B1B029A42E3
:1021E00006D1BB6903F060427B685B6C9A4201D008
:1021F000012300E0002318462037BD4680BD00BF04
:102200008C80C11180B584B000AF786039607B6884
:10221000002B01D101230FE1894B1B6803F0070359
:102220003A689A421BD9864B1B6823F007028449FF
:102230003B6813430B60FEF717FAF86008E0FEF7FF
:1022400013FA0246FB68D31A022B01D90323F3E0E9
:102250007B4B1B6803F007033A689A42EFD17B6817
:102260001B6803F00203002B16D07B689B6818469E
:10227000FFF726FBFEF7F8F9F86008E0FEF7F4F93F
:102280000246FB68D31A022B01D90323D4E0FFF7DF
:10229000D8FB0346002BF1D07B681B6803F040039A
:1022A000002B16D07B685B691846FFF71CFBFEF716
:1022B000DBF9F86008E0FEF7D7F90246FB68D31AAD
:1022C000022B01D90323B7E0FFF7CCFB0346002B19
:1022D000F1D07B681B6803F00403002B16D07B68E9
:1022E000DB681846FFF715FBFEF7BEF9F86008E05B
:1022F000FEF7BAF90246FB68D31A022B01D9032371
:102300009AE0FFF7C1FB0346002BF1D07B681B6806
:1023100003F00803002B17D07B681B69DB0018460D
:10232000FFF70AFBFEF7A0F9F86008E0FEF79CF95A
:102330000246FB68D31A022B01D903237CE0FFF786
:10234000B4FB0346002BF1D07B681B6803F001034C
:10235000002B43D07B685B68022B06D1FFF797F90F
:102360000346002B1ED1012366E07B685B68032BCC
:1023700006D1FFF728FB0346002B13D101235BE0B6
:102380007B685B68002B06D1FFF731FA0346002B10
:1023900008D1012350E0FFF7A7F90346002B01D134
:1023A000012349E07B685B681846FFF76BFAFEF78C
:1023B0005BF9F8600AE0FEF757F90246FB68D31AAA
:1023C00041F28832934201D9032335E0FFF76DFAD9
:1023D00002467B685B689B009A42ECD1184B1B68F5
:1023E00003F007033A689A421BD2154B1B6823F08F
:1023F000070213493B6813430B60FEF735F9F86099
:1024000008E0FEF731F90246FB68D31A022B01D926
:10241000032311E00A4B1B6803F007033A689A4252
:10242000EFD100F0B3F80346064A1360064B1B6871
:102430001846FEF7CDF8034618461037BD4680BD56
:1024400000400058000000200400002090B587B034
:1024500000AF00237B6100233B61FFF726FAB860E1
:10246000FFF7E4FA7860BB68002B05D0BB680C2B43
:1024700039D17B68012B36D1FFF7C9F90346002B10
:1024800015D1FFF7C4F90346012B06D1FFF7CFF9A9
:1024900003461B0A03F00F0305E0FFF7D3F90346D9
:1024A0001B0A03F00F03364A52F8233014E0FFF7FB
:1024B000AEF90346012B06D1FFF7B9F903461B0914
:1024C00003F00F0305E0FFF7BDF903461B0903F016
:1024D0000F032B4A52F823303B61BB68002B15D108
:1024E0003B697B6112E0BB68042B02D1254B7B6109
:1024F0000CE0BB68082B09D1FFF79CF80346012BC1
:1025000002D1204B7B6101E01F4B7B61FFF7CDF9CE
:1025100003460C2B2FD1FFF789FA78607B68022BDA
:1025200003D07B68032B03D00DE0164BFB600DE05E
:10253000FFF780F80346012B02D1124BFB6005E048
:10254000114BFB6002E03B69FB6000BFFFF74CFAF8
:102550000246FB6803FB02F4FFF75DFA03461B0922
:102560000133B4FBF3F4FFF74BFA03465B0F01337F
:10257000B4FBF3F37B617B6918461C37BD4690BD05
:10258000584300080024F4000048E80198B500AF63
:10259000FFF75CFF0446FFF7E2F903461B0903F06F
:1025A0000F03034A52F82330B4FBF3F3184698BDE7
:1025B0001843000890B585B000AF78607B681B09B0
:1025C00003F00F03104A52F82330FB60FFF7D2F9F3
:1025D00003461B0903F00F030C4A52F82330FA6834
:1025E000B2FBF3F3BB60BB68094AA2FB03239C0C5C
:1025F000FEF7BCFF03461946204600F00BF80346E1
:1026000018461437BD4690BD5843000818430008CB
:1026100083DE1B4380B58EB000AF786039603A4AE4
:1026200007F1200392E80300186004331980374A49
:1026300007F1180392E80300186004331980344A44
:1026400007F10C0307CA83E8070000237B633B689C
:10265000B3F5007F1BD100233B6314E03B6B5B00B1
:1026600038333B4433F8183C1A467B68934207D80A
:102670003B6B9B0038333B4453F82C3C7B6321E09D
:102680003B6B01333B633B6B022BE7D91AE0002322
:10269000FB6214E0FB6A5B0038333B4433F8203CB8
:1026A0001A467B68934207D8FB6A9B0038333B4449
:1026B00053F82C3C7B6305E0FB6A0133FB62FB6A49
:1026C000022BE7D9134B1B6823F0070211497B6BE0
:1026D00013430B60FDF7C8FFB86208E0FDF7C4FFC5
:1026E0000246BB6AD31A022B01D9032307E0094B28
:1026F0001B6803F007037A6B9A42EFD10023184658
:102700003837BD4680BD00BFF4420008FC420008D7
:10271000044300080040005880B400AF4FF0B043BD
:10272000D3F8903003F00203022B01D1012300E023
:1027300000231846BD4680BC704780B483B000AF0C
:1027400078604FF0B043D3F888207B681B0CDB43E4
:102750001A407B689BB24FF0B0411343C1F88830F8
:1027600000BF0C37BD4680BC704780B483B000AF5B
:1027700078604FF0B043D3F8883023F440724FF0C4
:10278000B0417B681343C1F8883000BF0C37BD46A9
:1027900080BC704780B483B000AF78604FF0B04326
:1027A000D3F8883023F440624FF0B0417B68134384
:1027B000C1F8883000BF0C37BD4680BC704780B47C
:1027C00083B000AF78604FF0B043D3F888207B68C7
:1027D0001B0903F47F23DB431A407B681B0103F4CE
:1027E0007F234FF0B0411343C1F8883000BF0C374E
:1027F000BD4680BC704780B483B000AF78604FF0B6
:10280000B043D3F888207B681B0C1B04DB431A40C1
:102810007B681B044FF0B0411343C1F8883000BF00
:102820000C37BD4680BC704780B483B000AF786081
:102830004FF0B043D3F8883023F040424FF0B0411E
:102840007B681343C1F8883000BF0C37BD4680BC9D
:10285000704780B483B000AF78604FF0B043D3F8D6
:10286000883023F040524FF0B0417B681343C1F8E9
:10287000883000BF0C37BD4680BC704780B483B041
:1028800000AF78604FF0B043D3F8903023F440723B
:102890004FF0B0417B681343C1F8903000BF0C3754
:1028A000BD4680BC704780B400AF4FF0B043D3F852
:1028B000903003F440731846BD4680BC704780B426
:1028C00000AF4FF0B043D3F890304FF0B04243F434
:1028D0008033C2F8903000BFBD4680BC704780B4E2
:1028E00000AF4FF0B043D3F890304FF0B04223F434
:1028F0008033C2F8903000BFBD4680BC70470000F6
:1029000080B586B000AF786000233B610023FB7385
:102910000023BB737B681B6803F48033002B5CD0FF
:10292000FEF716FEFDF7A0FE786109E0FDF79CFEBC
:1029300002467B69D31A022B02D90323FB7306E0FC
:102940007E4B1B6803F48073B3F5807FEED1FB7B75
:10295000DBB2002B3ED1FFF7A6FF02467B685B6B24
:102960009A420FD04FF0B043D3F8903023F4407325
:102970003B61FFF7A4FFFFF7B2FF4FF0B0423B69A6
:10298000C2F890303B6903F00203022B14D1FDF72B
:102990006BFE78610BE0FDF767FE02467B69D31A98
:1029A00041F28832934202D90323FB7304E0FFF71C
:1029B000B3FE0346012BEED1FB7BDBB2002B05D12E
:1029C0007B685B6B1846FFF759FF06E0FB7BDBB2C9
:1029D000BB7302E0FB7BDBB2BB737B681B6803F05D
:1029E0000103002B04D07B685B681846FFF7A5FE47
:1029F0007B681B6803F00203002B04D07B689B6894
:102A00001846FFF79AFE7B681B6803F02003002B33
:102A100004D07B681B691846FFF7BCFE7B681B6807
:102A200003F40073002B04D07B681B6A1846FFF781
:102A3000E2FE7B681B6803F48063002B04D07B6894
:102A40005B6A1846FFF7D7FE7B681B6803F40063D8
:102A5000002B04D07B689B6A1846FFF7CCFE7B688E
:102A60001B6803F04003002B04D07B685B691846A9
:102A7000FFF7A5FE7B681B6803F08003002B04D0E2
:102A80007B689B691846FFF79AFE7B681B6803F416
:102A90008073002B04D07B68DB691846FFF78FFE3C
:102AA0007B681B6803F01003002B11D07B68DB6888
:102AB0001846FFF75AFE7B68DB68B3F5807F07D1C5
:102AC0004FF0B043DB684FF0B04243F08073D36007
:102AD0007B681B6803F40043002B10D07B681B6BE2
:102AE0001846FFF7A1FE7B681B6B002B07D14FF048
:102AF000B043DB684FF0B04243F08073D3607B6833
:102B00001B6803F48043002B11D07B68DB6A1846F6
:102B1000FFF79FFE7B68DB6AB3F1005F07D14FF0E0
:102B2000B043DB684FF0B04243F48033D360BB7BEB
:102B3000DBB218461837BD4680BD00BF0004005800
:102B400080B485B000AF0346FB800023FB60B7F97B
:102B50000630842B05D0B7F90620FB6813440333F5
:102B6000FB60FB6818461437BD4680BC704780B5D3
:102B700000AF00F0D9FA0023184680BDF0B589B047
:102B800004AF786039607B685B69002B20D07B687C
:102B90009B69002B1CD07B685C687B681D687B6828
:102BA0001E697B68B3F908301846FFF7C9FF014674
:102BB0007B685B697A6892690292019300913B6835
:102BC00032462946204600F0E8F80346FB601CE048
:102BD0007B685C687B681D687B681B699EB27B684C
:102BE000B3F908301846FFF7ABFF024607F10C03B4
:102BF000019300923B6832462946204600F02AF9AC
:102C00000346012B01D0002300E0FB68184614376F
:102C1000BD46F0BD80B584B000AF78607B68FB60D6
:102C2000FB68002B01D0FB6800E00123184600F090
:102C300047FA002318461037BD4680BD80B483B0E4
:102C400000AF78607B6803F108027B685A607B689C
:102C50004FF0FF329A607B6803F108027B68DA600C
:102C60007B6803F108027B681A617B6800221A60A6
:102C700000BF0C37BD4680BC704780B483B000AF46
:102C800078607B6800221A6100BF0C37BD4680BCAB
:102C9000704780B485B000AF786039607B685B684E
:102CA000FB603B68FA685A60FB689A683B689A6008
:102CB000FB689B683A685A60FB683A689A603B68B0
:102CC0007A681A617B681B685A1C7B681A6000BFAF
:102CD0001437BD4680BC704780B485B000AF7860C3
:102CE00039603B681B68BB60BB68B3F1FF3F03D131
:102CF0007B681B69FB600CE07B680833FB6002E0CB
:102D0000FB685B68FB60FB685B681B68BA689A429B
:102D1000F6D2FB685A683B685A603B685B683A6861
:102D20009A603B68FA689A60FB683A685A603B6848
:102D30007A681A617B681B685A1C7B681A6000BF3E
:102D40001437BD4680BC704780B485B000AF786052
:102D50007B681B69FB607B685B687A6892689A6035
:102D60007B689B687A6852685A60FB685B687A681F
:102D70009A4203D17B689A68FB685A607B6800229C
:102D80001A61FB681B685A1EFB681A60FB681B68A7
:102D900018461437BD4680BC704780B58EB004AF6E
:102DA000F860B9607A603B607B6B002B0AD14FF012
:102DB000500383F31188BFF36F8FBFF34F8F3B62D4
:102DC00000BFFEE7BB6B002B0AD14FF0500383F32B
:102DD0001188BFF36F8FBFF34F8FFB6100BFFEE71A
:102DE00054233B613B69542B0AD04FF0500383F3CB
:102DF0001188BFF36F8FBFF34F8FBB6100BFFEE73A
:102E00003B69BB6B002B1ED07B6B002B1BD0BB6BBD
:102E10007B627B6A7A6B1A637B6A022283F8512099
:102E2000002303937B6A029307F1140301933B6B26
:102E300000933B687A68B968F86800F050F8786ADF
:102E400000F0D4F801E000237B617B691846283745
:102E5000BD4680BD80B58CB004AFF860B9603B6002
:102E60001346FB80FB889B00184601F01FF8786131
:102E70007B69002B0ED0542001F018F8F861FB6933
:102E8000002B03D0FB697A691A6305E0786901F0C9
:102E9000D1F801E00023FB61FB69002B17D0FB692F
:102EA000002283F85120FA8800230393FB690293E0
:102EB000FB6A0193BB6A00933B68B968F86800F04D
:102EC0000EF8F86900F092F80123BB6102E04FF0C0
:102ED000FF33BB61BB6918462037BD4680BD80B556
:102EE00088B000AFF860B9607A603B603B6B1A6BEA
:102EF0007B6803F18043013B9B001344BB61BB69CA
:102F000023F00703BB61BB6903F00703002B0AD062
:102F10004FF0500383F31188BFF36F8FBFF34F8FD0
:102F20007B6100BFFEE7BB68002B1FD00023FB6165
:102F300012E0BA68FB69134419783A6BFB691344D1
:102F400034330A461A70BA68FB6913441B78002BA5
:102F500006D0FB690133FB61FB690F2BE9D900E067
:102F600000BF3B6B002283F8432003E03B6B002251
:102F700083F83420BB6A062B01D90623BB623B6B66
:102F8000BA6ADA623B6BBA6A5A643B6B00229A6493
:102F90003B6B04331846FFF770FE3B6B1833184643
:102FA000FFF76BFE3B6B3A6B1A61BB6AC3F107021A
:102FB0003B6B9A613B6B3A6B5A623B6B0022DA6463
:102FC0003B6B002283F850203A68F968B86900F03A
:102FD000D7FC02463B6B1A60FB6A002B02D0FB6AEF
:102FE0003A6B1A6000BF2037BD4680BD80B582B005
:102FF00000AF786000F0B2FD2A4B1B680133294A0C
:103000001360294B1B68002B09D1274A7B6813608A
:10301000244B1B68012B10D100F070FB0DE0234BFB
:103020001B68002B09D1204B1B68DA6A7B68DB6ABE
:103030009A4202D81C4A7B6813601D4B1B680133FF
:103040001B4A13607B68DB6A01229A40194B1B689C
:103050001343184A13607B68DA6A13469B001344D3
:103060009B00154A1A447B68043319461046FFF743
:1030700010FE00F0A3FD0D4B1B68002B0ED00A4B79
:103080001B68DA6A7B68DB6A9A4207D20B4B4FF007
:1030900080521A60BFF34F8FBFF36F8F00BF0837A6
:1030A000BD4680BDC4030020C4020020D003002020
:1030B000E0030020CC030020C802002004ED00E063
:1030C00080B584B000AF78600023FB607B68002B84
:1030D00017D0134B1B68002B0AD04FF0500383F31B
:1030E0001188BFF36F8FBFF34F8FBB6000BFFEE748
:1030F00000F07AF80021786800F0DCFB00F0BCF802
:10310000F860FB68002B07D1064B4FF080521A6025
:10311000BFF34F8FBFF36F8F00BF1037BD4680BD29
:10312000EC03002004ED00E080B58AB004AF00237A
:10313000BB6000237B603A46391D07F1080318463F
:10314000FDF74EF839687B68BA6802920193002354
:10315000009300230A461E491E48FFF71EFE034641
:103160001D4A13601C4B1B68002B02D001237B619E
:1031700001E000237B617B69012B16D14FF05003E6
:1031800083F31188BFF36F8FBFF34F8F3B6100BF95
:10319000124B4FF0FF321A60114B01221A60114B93
:1031A00000221A6000F068FC0EE07B69B3F1FF3F7B
:1031B0000AD14FF0500383F31188BFF36F8FBFF331
:1031C0004F8FFB6000BFFEE700BF1837BD4680BDD4
:1031D0001043000821360008E8030020E403002023
:1031E000D0030020C803002080B400AF044B1B684C
:1031F0000133034A136000BFBD4680BC704700BF67
:10320000EC03002080B485B000AF0023BB60012335
:103210007B60144B1B687A689A4201D20123BB6021
:10322000114B1B68DB6A002B02D00023FB6012E00D
:103230000E4B1B68012B02D90023FB600BE0BB681F
:10324000002B02D00023FB6005E0094B1A68094BF4
:103250001B68D31AFB60FB6818461437BD4680BC58
:10326000704700BFCC030020C4020020C802002029
:10327000E4030020C803002080B584B000AF002321
:10328000FB600023BB60414B1B68002B0AD14FF051
:10329000500383F31188BFF36F8FBFF34F8F3B60F1
:1032A00000BFFEE700F05AFC384B1B68013B374A71
:1032B0001360364B1B68002B61D1354B1B68002B0C
:1032C0005DD02EE0334BDB68DB68FB60FB681833B6
:1032D0001846FFF739FDFB6804331846FFF734FD45
:1032E000FB68DB6A01229A402B4B1B6813432A4A76
:1032F0001360FB68DA6A13469B0013449B00274A5D
:103300001A44FB68043319461046FFF7C2FCFB68F9
:10331000DA6A234B1B68DB6A9A4202D3214B0122F3
:103320001A601C4B1B68002BCCD1FB68002B01D012
:1033300000F082FA1C4B1B687B607B68002B10D06E
:1033400000F05CF80346002B02D0164B01221A60F5
:103350007B68013B7B607B68002BF1D1124B002224
:103360001A60104B1B68002B09D00123BB600F4B68
:103370004FF080521A60BFF34F8FBFF36F8F00F092
:103380001DFCBB6818461037BD4680BDEC0300200D
:10339000C403002084030020CC030020C8020020C6
:1033A000C4020020D8030020D403002004ED00E074
:1033B00080B485B000AF78600E4B1A687B681A4401
:1033C0000D4B1B689A420AD94FF0500383F31188C2
:1033D000BFF36F8FBFF34F8FFB6000BFFEE7054B5E
:1033E0001A687B681344034A136000BF1437BD4654
:1033F00080BC7047C8030020E403002080B586B07D
:1034000000AF00237B614E4B1B68002B40F088808F
:103410004C4B1B6801333B614A4A3B6913603B6973
:10342000002B20D1484B1B681B68002B0AD04FF0A3
:10343000500383F31188BFF36F8FBFF34F8F3B604F
:1034400000BFFEE7404B1B68FB60404B1B683E4AD9
:1034500013603E4AFB6813603D4B1B6801333C4AD6
:10346000136000F0E9F93B4B1B683A699A4248D374
:10347000354B1B681B68002B04D1364B4FF0FF32D5
:103480001A603EE0304B1B68DB68DB68BB60BB68E2
:103490005B687B603A697B689A4203D22D4A7B68FD
:1034A00013602EE0BB6804331846FFF74DFCBB6881
:1034B0009B6A002B04D0BB6818331846FFF744FC06
:1034C000BB68DB6A01229A40234B1B681343224AE4
:1034D0001360BB68DA6A13469B0013449B001F4AC3
:1034E0001A44BB68043319461046FFF7D2FBBB6889
:1034F000DA6A1B4B1B68DB6A9A42B9D301237B61F2
:10350000B6E7174B1B68DA6A144913469B0013444D
:103510009B000B441B68012B07D901237B6104E04E
:10352000104B1B6801330F4A13600F4B1B68002BB5
:1035300001D001237B617B6918461837BD4680BDE9
:10354000EC030020C80300207C030020800300203F
:10355000DC030020E4030020CC030020C80200208C
:10356000C4020020D4030020D803002080B487B018
:1035700000AF264B1B68002B03D0254B01221A609D
:103580003FE0234B00221A60224B1B68FB60FB6864
:10359000B3FA83F3FB72FB7AC3F11F037B611E490D
:1035A0007A6913469B0013449B000B441B68002B55
:1035B0000AD14FF0500383F31188BFF36F8FBFF32D
:1035C0004F8F7B6000BFFEE77A6913469B00134470
:1035D0009B00114A13443B613B695B685A683B6935
:1035E0005A603B695A683B6908339A4204D13B6987
:1035F0005B685A683B695A603B695B68DB68074AED
:10360000136000BF1C37BD4680BC7047EC03002030
:10361000D8030020CC030020C8020020C4020020F0
:1036200080B584B000AF786000F0A8F8184B1B6834
:10363000012B07D9174B4FF080521A60BFF34F8F01
:10364000BFF36F8FFFF7DEFDF860FB68012BEBD94E
:10365000FFF7CAFD104B1A68104B1B689A420AD23A
:103660004FF0500383F31188BFF36F8FBFF34F8F79
:10367000BB6000BFFEE7FFF7C5FDF860FB68012BEC
:1036800002D9F86800F00AFBFFF7F6FDCCE700BFAF
:10369000C802002004ED00E0E4030020C80300207D
:1036A00080B483B000AF01233B600123FB710F4B5B
:1036B0001B68002B02D00023FB7110E00C4B1B6831
:1036C000002B02D00023FB7109E00A4B1A680A4B59
:1036D00019683B68CB1A9A4201D10223FB71FB792E
:1036E00018460C37BD4680BC704700BF84030020DD
:1036F000D8030020B0030020C403002080B582B0AE
:1037000000AF00237B600CE07A6813469B001344F3
:103710009B00124A13441846FFF790FA7B68013366
:103720007B607B68062BEFD90D48FFF787FA0D48C1
:10373000FFF784FA0C48FFF781FA0C48FFF77EFA8E
:103740000B48FFF77BFA0B4B054A1A600A4B054AF8
:103750001A6000BF0837BD4680BD00BFC802002008
:1037600054030020680300208403002098030020F5
:10377000B00300207C0300208003002080B582B0CD
:1037800000AF19E000F0EAF9104BDB68DB687B6002
:103790007B6804331846FFF7D7FA0D4B1B68013BD3
:1037A0000B4A13600B4B1B68013B0A4A136000F085
:1037B00005FA786800F010F8064B1B68002BE1D181
:1037C00000BF00BF0837BD4680BD00BF9803002082
:1037D000C4030020AC03002080B584B000AF786043
:1037E0007B6893F85130002B08D17B681B6B18461F
:1037F00000F020FC786800F01DFC18E07B6893F86E
:103800005130012B03D1786800F014FC0FE07B6885
:1038100093F85130022B0AD04FF0500383F31188F4
:10382000BFF36F8FBFF34F8FFB6000BFFEE700BF9A
:103830001037BD4680BD000080B483B000AF0C4B94
:103840001B681B68002B04D10A4B4FF0FF321A6033
:1038500008E0074B1B68DB68DB687B607B685B68A4
:10386000044A136000BF0C37BD4680BC704700BFE0
:103870007C030020E403002080B483B000AF0B4B36
:103880001B68002B02D101237B6008E0084B1B68FA
:10389000002B02D102237B6001E000237B607B6868
:1038A00018460C37BD4680BC704700BFD0030020CF
:1038B000EC03002080B584B000AF78603960294BFC
:1038C0001B68FB60284B1B6804331846FFF73CFA63
:1038D0000346002B0BD1244B1B68DB6A012202FA42
:1038E00003F3DA43214B1B681340204A13607B68C3
:1038F000B3F1FF3F0AD13B68002B07D01A4B1B687E
:10390000043319461A48FFF7C4F926E0FA687B68C1
:103910001344BB60144B1B68BA685A60BA68FB68F2
:103920009A4209D2134B1A680F4B1B68043319468D
:103930001046FFF7D1F910E00F4B1A680A4B1B68CD
:10394000043319461046FFF7C7F90C4B1B68BA68D9
:103950009A4202D2094ABB68136000BF1037BD46C5
:1039600080BD00BFC8030020C4020020CC0300209B
:10397000B0030020800300207C030020E40300202B
:1039800080B485B000AFF860B9607A60FB68043B32
:10399000FB60FB684FF080721A60FB68043BFB60C1
:1039A000BB6823F00102FB681A60FB68043BFB6004
:1039B000084AFB681A60FB68143BFB607A68FB6886
:1039C0001A60FB68203BFB60FB6818461437BD4655
:1039D00080BC7047D939000880B485B000AF00239F
:1039E0007B60124B1B68B3F1FF3F0AD04FF05003CE
:1039F00083F31188BFF36F8FBFF34F8FFB6000BF5E
:103A0000FEE74FF0500383F31188BFF36F8FBFF3CE
:103A10004F8FBB6000BF00BF7B68002BFCD000BF96
:103A200000BF1437BD4680BC704700BF0C000020AB
:103A3000074B19680868B0E8F00F80F30988BFF3F6
:103A40006F8F4FF0000080F311884EF00D0E70471D
:103A5000C402002000BF00BF06480068006880F371
:103A6000088862B661B6BFF34F8FBFF36F8F00DF78
:103A700000BF00BF08ED00E080B584B000AF324B5E
:103A8000FB60FB681B78DBB27B60FB68FF221A706F
:103A9000FB681B78DBB2FB70FB78DBB203F05003F2
:103AA000DAB22A4B1A702A4B07221A6009E0284B17
:103AB0001B68013B264A1360FB78DBB25B00DBB27C
:103AC000FB70FB78DBB203F08003802BEFD0204B40
:103AD0001B68C3F10703042B0AD04FF0500383F394
:103AE0001188BFF36F8FBFF34F8FBB6000BFFEE73E
:103AF000174B1B681B02164A1360154B1B6803F417
:103B0000E063134A13607B68DAB2FB681A70114BEA
:103B10001B68104A43F4700313600E4B1B680D4A78
:103B200043F07043136000F085F90B4B00221A60DC
:103B3000FFF792FFFFF71AFDFFF74EFF002318462D
:103B40001037BD4680BD00BF00E400E0FC0300204C
:103B50000004002020ED00E00C00002080B483B0C1
:103B600000AF4FF0500383F31188BFF36F8FBFF3A3
:103B70004F8F7B6000BF0F4B1B6801330D4A1360F2
:103B80000C4B1B68012B0FD10B4B1B68DBB2002BBE
:103B90000AD04FF0500383F31188BFF36F8FBFF348
:103BA0004F8F3B6000BFFEE700BF0C37BD4680BCB7
:103BB000704700BF0C00002004ED00E080B483B02B
:103BC00000AF114B1B68002B0AD14FF0500383F359
:103BD0001188BFF36F8FBFF34F8F7B6000BFFEE78D
:103BE000094B1B68013B084A1360074B1B68002BFD
:103BF00005D100233B603B6883F3118800BF00BF01
:103C00000C37BD4680BC70470C000020000000004F
:103C1000EFF30980BFF36F8F0D4B1A6820E9F00FA7
:103C200010602DE908404FF0500080F31188FFF735
:103C30009DFC4FF0000080F31188BDE80840196832
:103C40000868B0E8F00F80F30988BFF36F8F704702
:103C5000C402002000BF00BF80B582B000AF4FF0AB
:103C6000500383F31188BFF36F8FBFF34F8F7B60D7
:103C700000BFFFF7C3FB0346002B03D0064B4FF0FA
:103C800080521A6000233B603B6883F3118800BFB9
:103C900000BF0837BD4680BD04ED00E080B588B0A8
:103CA00000AF78607A685D4B1B689A4202D95B4B23
:103CB0001B687B605A4B1B68594A23F00103136051
:103CC000584B1A687B68013B5749096801FB03F3AD
:103CD0001344FB61554B1B68FA699A4204D9534B54
:103CE0001B68FA69D31AFB6172B6BFF34F8FBFF33B
:103CF0006F8FFFF7D5FC0346002B10D1494B4C4A80
:103D00001B681360464B1B68454A43F00103136070
:103D1000454B1B68464A013B136062B67AE0444A51
:103D2000FB6913603F4B00221A603D4B1B683C4A05
:103D300043F0010313607B68FB6007F10C03184636
:103D4000FCF71EFAFB68002B04D0BFF34F8F30BF87
:103D5000BFF36F8F3B1D1846FCF732FA62B6BFF314
:103D60004F8FBFF36F8F72B6BFF34F8FBFF36F8F5D
:103D70002B4B06221A602A4B1B6803F48033002B5E
:103D80001DD0294B1A68274B1968FB69CB1A1344BD
:103D9000013B7B61254B1B687A699A4204D3224B15
:103DA0001B687A699A4203D91F4B1B68013B7B61F0
:103DB0001F4A7B6913607B68013BBB6118E07B682D
:103DC000194A126803FB02F2164B1B68D31A3B61B7
:103DD000154B1B683A69B2FBF3F3BB61BB69013356
:103DE000114A126803FB02F211493B69D31A0B60B6
:103DF0000C4B00221A600A4B1B68094A43F001036E
:103E00001360B869FFF7D4FA074B1B68084A013BF7
:103E1000136062B600BF2037BD4680BDF4030020AA
:103E200010E000E018E000E0F0030020F8030020BC
:103E300014E000E080B400AF144B1B68144AA2FBEE
:103E400003239B09134A1360124B1B686FF07F42D8
:103E5000B2FBF3F3104A1360104B2D221A60104B83
:103E600000221A600F4B00221A60084B1B68084A98
:103E7000A2FB03239B090C4A013B1360084B07225A
:103E80001A6000BFBD4680BC704700BF0000002024
:103E9000D34D6210F0030020F4030020F80300204B
:103EA00010E000E018E000E014E000E080B58AB027
:103EB00000AF78600023FB61FFF796F9584B1B6851
:103EC000002B01D100F010F9564B1A687B681340A3
:103ED000002B40F08E807B68002B1DD008227B6871
:103EE00013447B607B6803F00703002B14D07B68CE
:103EF00023F0070308337B607B6803F00703002B84
:103F00000AD04FF0500383F31188BFF36F8FBFF3D4
:103F10004F8F7B6100BFFEE77B68002B69D0424B6F
:103F20001B687A689A4264D8404B3B623F4B1B68DF
:103F30007B6204E07B6A3B627B6A1B687B627B6A14
:103F40005B687A689A4203D97B6A1B68002BF1D1BF
:103F5000334B1B687A6A9A424BD03B6A1B68082233
:103F60001344FB617B6A1A683B6A1A607B6A5A6871
:103F70007B68D21A08235B009A421FD97A6A7B6851
:103F80001344BB61BB6903F00703002B0AD04FF059
:103F9000500383F31188BFF36F8FBFF34F8F3B61E3
:103FA00000BFFEE77B6A5A687B68D21ABB695A6019
:103FB0007B6A7A685A60B86900F0F8F81A4B1A6898
:103FC0007B6A5B68D31A184A1360174B1A68184B40
:103FD0001B689A4203D2144B1B68154A13607B6A14
:103FE0005A68104B1B681A437B6A5A607B6A00222E
:103FF0001A60FFF741F9FB6903F00703002B0AD0B1
:104000004FF0500383F31188BFF36F8FBFF34F8FCF
:10401000FB6000BFFEE7FB6918462837BD4680BD40
:104020000C10002018100020101000200410002098
:104030001410002080B586B000AF78607B687B618B
:104040007B68002B48D008235B427A6913447B616C
:104050007B693B613B695A68214B1B681340002B0D
:104060000AD14FF0500383F31188BFF36F8FBFF372
:104070004F8FFB6000BFFEE73B691B68002B0AD037
:104080004FF0500383F31188BFF36F8FBFF34F8F4F
:10409000BB6000BFFEE73B695A68114B1B681340C9
:1040A000002B19D03B691B68002B15D13B695A685E
:1040B0000B4B1B68DB431A403B695A60FFF794F8CF
:1040C0003B695A68074B1B681344064A13603869FA
:1040D00000F06CF8FFF7D0F800BF1837BD4680BD80
:1040E000181000201010002080B485B000AF4FF4ED
:1040F0004063BB60274BFB60FB6803F00703002BAA
:104100000CD0FB680733FB60FB6823F00703FB6000
:10411000BA68FB68D31A1F4A1344BB60FB687B6014
:104120001D4A7B6813601C4B00225A607B68BA688A
:104130001344FB600822FB689B1AFB60FB6823F0BA
:104140000703FB60FB68154A1360144B1B680022D1
:104150005A60124B1B6800221A607B683B603B6808
:10416000FA68D21A3B685A600C4B1A683B681A60AE
:104170003B685B680A4A13603B685B68094A1360E6
:10418000094B4FF000421A6000BF1437BD4680BC97
:10419000704700BF04040020041000200C10002011
:1041A00014100020101000201810002080B485B0DA
:1041B00000AF7860274BFB6002E0FB681B68FB6088
:1041C000FB681B687A689A42F7D8FB68BB60FB689B
:1041D0005B68BA6813447A689A4208D1FB685A68E7
:1041E0007B685B681A44FB685A60FB687B607B688D
:1041F000BB607B685B68BA681A44FB681B689A42BC
:1042000018D1FB681A68144B1B689A420DD07B6862
:104210005A68FB681B685B681A447B685A60FB68D5
:104220001B681A687B681A6008E00B4B1A687B6889
:104230001A6003E0FB681A687B681A60FA687B689A
:104240009A4202D0FB687A681A6000BF1437BD46F4
:1042500080BC7047041000200C10002070B50D4D7C
:104260000D4C641BA4100026A64209D10B4D0C4C2A
:1042700000F020F8641BA4100026A64205D170BDF2
:1042800055F8043B98470136EEE755F8043B98474C
:104290000136F2E798430008984300089843000865
:1042A0009C43000802440346934200D1704703F840
:1042B000011BF9E7F8B500BFF8BC08BC9E46704783
:0C42C000F8B500BFF8BC08BC9E46704773
:1042CC004C45445F5461736B00000000CC42000805
:1042DC00FD0300080000000000000000800000004A
:1042EC00000000000000000012002400300000005C
:1042FC0006000C001000000000000000010000008F
:10430C000200000049444C45000000000100000080
:10431C000300000005000000010000000100000087
:10432C00060000000A00000020000000020000004F
:10433C000400000008000000100000004000000015
:10434C00800000000001000000020000A0860100B7
:10435C00400D0300801A060000350C0040420F008F
:10436C0080841E0000093D0000127A000024F40035
:10437C0000366E010048E801006CDC020000000011
:0C438C0000000000000000000000000025
:0443980065010008B3
:04439C0041010008D3
:1043A00000093D001000000001000000AAAAAAAA0E
:040000050800053DAD
:00000001FF
